:100000000C9435000C945D000C945D000C945D0024
:100010000C945D000C945D000C945D000C945D00EC
:100020000C945D000C945D000C945D000C945D00DC
:100030000C945D000C945D000C945D000C945D00CC
:100040000C94BD010C945D000C942D020C940702DD
:100050000C945D000C945D000C945D000C945D00AC
:100060000C945D000C945D002D0311241FBECFEF96
:10007000D8E0DEBFCDBF11E0A0E0B1E0E2EDF8E0F6
:1000800002C005900D92A032B107D9F721E0A0E29D
:10009000B1E001C01D92A63CB207E1F710E0C5E354
:1000A000D0E004C02197FE010E946104C433D1074F
:1000B000C9F70E945F020C9467040C940000AF9291
:1000C000BF92CF92DF92EF92FF920F931F93CF9345
:1000D000DF936C017B018B01040F151FEB015E01A7
:1000E000AE18BF08C017D10759F06991D601ED913C
:1000F000FC910190F081E02DC6010995892B79F7DB
:10010000C501DF91CF911F910F91FF90EF90DF908C
:10011000CF90BF90AF900895FC01538D448D252F53
:1001200030E0842F90E0821B930B541710F0CF9691
:10013000089501970895FC01918D828D981761F0C3
:10014000A28DAE0FBF2FB11D5D968C91928D9F5FDA
:100150009F73928F90E008958FEF9FEF0895FC01B9
:10016000918D828D981731F0828DE80FF11D858D6C
:1001700090E008958FEF9FEF0895FC01918D228DFF
:10018000892F90E0805C9F4F821B91098F73992784
:10019000089589E291E00E94BD0021E0892B09F4D5
:1001A00020E0822F089580E090E0892B29F00E94C2
:1001B000C90081110C9400000895FC01A48DA80FC2
:1001C000B92FB11DA35ABF4F2C91848D90E0019699
:1001D0008F739927848FA689B7892C93A089B189B9
:1001E0008C91837080648C93938D848D981306C05A
:1001F0000288F389E02D80818F7D80830895EF92BE
:10020000FF920F931F93CF93DF93EC0181E0888FD0
:100210009B8D8C8D98131AC0E889F989808185FFA0
:1002200015C09FB7F894EE89FF896083E889F98942
:1002300080818370806480839FBF81E090E0DF9144
:10024000CF911F910F91FF90EF900895F62E0B8D97
:1002500010E00F5F1F4F0F731127E02E8C8D8E1152
:100260000CC00FB607FCFACFE889F989808185FFB9
:10027000F5CFCE010E94DD00F1CFEB8DEC0FFD2F0D
:10028000F11DE35AFF4FF0829FB7F8940B8FEA8974
:10029000FB8980818062CFCFCF93DF93EC01888D83
:1002A0008823B9F0AA89BB89E889F9898C9185FDF1
:1002B00003C0808186FD0DC00FB607FCF7CF8C917F
:1002C00085FFF2CF808185FFEDCFCE010E94DD005A
:1002D000E9CFDF91CF910895FC0101900020E9F76B
:1002E0003197AF01481B590BBC0189E291E00C9496
:1002F0005F008F929F92AF92BF920F931F93CF9305
:10030000DF93CDB7DEB7A1970FB6F894DEBF0FBE6F
:10031000CDBF19A2423008F44AE08E010F5D1F4F95
:10032000842E912CB12CA12CA50194010E943004A3
:10033000E62FB901CA01EA30F4F4E05DD801EE938A
:100340008D01232B242B252B79F790E080E010974B
:1003500019F0CD010E946C01A1960FB6F894DEBF92
:100360000FBECDBFDF91CF911F910F91BF90AF9086
:100370009F908F900895E95CE1CF1F920F920FB686
:100380000F9211242F933F938F939F93AF93BF931B
:100390008091250190912601A0912701B09128011B
:1003A0003091240123E0230F2D3758F50196A11D2C
:1003B000B11D209324018093250190932601A093E1
:1003C0002701B09328018091200190912101A091F3
:1003D0002201B09123010196A11DB11D809320013E
:1003E00090932101A0932201B0932301BF91AF917B
:1003F0009F918F913F912F910F900FBE0F901F9063
:10040000189526E8230F0296A11DB11DD2CF1F9289
:100410000F920FB60F9211242F933F934F935F9338
:100420006F937F938F939F93AF93BF93EF93FF93BC
:1004300089E291E00E94DD00FF91EF91BF91AF91C1
:100440009F918F917F916F915F914F913F912F91EC
:100450000F900FBE0F901F9018951F920F920FB61E
:100460000F9211242F938F939F93EF93FF93E0911B
:100470003901F0913A018081E0913F01F091400112
:1004800082FD1BC09081809142018F5F8F7320910C
:100490004301821741F0E0914201F0E0E75DFE4F39
:1004A000958F80934201FF91EF919F918F912F91B2
:1004B0000F900FBE0F901F9018958081F4CF789405
:1004C00084B5826084BD84B5816084BD85B5826059
:1004D00085BD85B5816085BD80916E00816080930A
:1004E0006E00109281008091810082608093810073
:1004F0008091810081608093810080918000816083
:10050000809380008091B10084608093B1008091DD
:10051000B00081608093B00080917A008460809305
:100520007A0080917A00826080937A0080917A00CC
:10053000816080937A0080917A00806880937A004D
:100540001092C100E0913901F0913A0182E080837C
:10055000E0913501F09136011082E0913701F09180
:1005600038018FEC808310924101E0913D01F091C0
:100570003E0186E08083E0913B01F0913C01808167
:1005800080618083E0913B01F0913C018081886033
:100590008083E0913B01F0913C0180818068808301
:1005A000E0913B01F0913C0180818F7D808384E666
:1005B000482E512C612C712CC0E0D0E00E94A60383
:1005C000A30192010E94FE034B015C010E94A6035D
:1005D000A30192010E94FE036B017C0186E191E080
:1005E0000E946C014AE0C501B401B7FE0DC06DE286
:1005F00089E291E00E94FF0066277727CB01681906
:1006000079098A099B094AE00E9479018AE191E00F
:100610000E946C014AE0C701B601F7FE0DC06DE211
:1006200089E291E00E94FF0066277727CB016C19D1
:100630007D098E099F094AE00E9479018CE191E0D1
:100640000E946C01209709F4B9CF0E94C900882349
:1006500009F4B4CF0E940000B1CFE9E2F1E01382C7
:10066000128288EE93E0A0E0B0E084839583A683B5
:10067000B78388E091E09183808385EC90E0958753
:10068000848784EC90E09787868780EC90E0918B5C
:10069000808B81EC90E0938B828B82EC90E0958B49
:1006A000848B86EC90E0978B868B118E128E138E46
:1006B000148E08958F929F92AF92BF92CF92DF9245
:1006C000EF92FF92CF93DF93EC01688179818A8169
:1006D0009B81611571058105910521F464E279ED35
:1006E0008BE597E02DE133EF41E050E00E94FE03FF
:1006F00049015A019B01AC01A7EAB1E40E941D0423
:100700006B017C01ACEEB4EFA50194010E942B04B7
:10071000C60ED71EE81EF91EF7FE06C081E0C81AF5
:10072000D108E10880E8F80AC882D982EA82FB820F
:10073000C701B6019F77DF91CF91FF90EF90DF90D7
:10074000CF90BF90AF909F908F9008958F929F927F
:10075000AF92BF92CF92DF92EF92FF926091000131
:100760007091010180910201909103016115710561
:100770008105910521F464E279ED8BE597E02DE1A7
:1007800033EF41E050E00E94FE0349015A019B0112
:10079000AC01A7EAB1E40E941D046B017C01ACEE40
:1007A000B4EFA50194010E942B04C60ED71EE81ECB
:1007B000F91EF7FE06C081E0C81AD108E10880E8FA
:1007C000F80AC0920001D0920101E0920201F09279
:1007D0000301C701B6019F77FF90EF90DF90CF90A4
:1007E000BF90AF909F908F90089560930001709399
:1007F000010180930201909303010895052E97FB58
:100800001EF400940E94150457FD07D00E94300486
:1008100007FC03D04EF40C94150450954095309588
:1008200021953F4F4F4F5F4F08959095809570955C
:1008300061957F4F8F4F9F4F08950E945204A59F4F
:10084000900DB49F900DA49F800D911D11240895CB
:10085000B7FF0C941D040E941D04821B930B089586
:10086000A1E21A2EAA1BBB1BFD010DC0AA1FBB1FB4
:10087000EE1FFF1FA217B307E407F50720F0A21B26
:10088000B30BE40BF50B661F771F881F991F1A9493
:1008900069F760957095809590959B01AC01BD01BD
:1008A000CF010895A29FB001B39FC001A39F700D17
:1008B000811D1124911DB29F700D811D1124911D68
:1008C0000895EE0FFF1F0590F491E02D0994F89420
:0208D000FFCF58
:1008D2000100000000000000FF005F008C004C01DE
:1008E200BD009B00AF00692C6A3D20000D0A00008C
:00000001FF
