:100000000C9453000C947B000C947B000C947B00AC
:100010000C947B000C947B000C947B000C947B0074
:100020000C947B000C947B000C947B000C947B0064
:100030000C947B000C947B000C947B000C947B0054
:100040000C9422020C947B000C94F0010C94CA01D5
:100050000C947B000C947B000C947B000C947B0034
:100060000C947B000C947B0000000000250028000D
:100070002B0000000000240027002A0004040404D0
:100080000404040402020202020203030303030342
:10009000010204081020408001020408102001021F
:1000A00004081020E50311241FBECFEFD8E0DEBF07
:1000B000CDBF11E0A0E0B1E0E2E9FAE002C00590B6
:1000C0000D92AC35B107D9F722E0ACE5B1E001C043
:1000D0001D92A430B207E1F710E0C3E5D0E004C000
:1000E0002197FE010E944105C235D107C9F70E9440
:1000F0006C020C9447050C940000AF92BF92CF9213
:10010000DF92EF92FF920F931F93CF93DF936C01D7
:100110007B018B01040F151FEB015E01AE18BF08B8
:10012000C017D10759F06991D601ED91FC9101906A
:10013000F081E02DC6010995892B79F7C501DF9182
:10014000CF911F910F91FF90EF90DF90CF90BF90D4
:10015000AF900895FC01538D448D252F30E0842FFE
:1001600090E0821B930B541710F0CF9608950197DF
:100170000895FC01918D828D981761F0A28DAE0FCC
:10018000BF2FB11D5D968C91928D9F5F9F73928F53
:1001900090E008958FEF9FEF0895FC01918D828D7F
:1001A000981731F0828DE80FF11D858D90E008954C
:1001B0008FEF9FEF0895FC01918D228D892F90E0A4
:1001C000805C9F4F821B91098F739927089587E662
:1001D00091E00E94DB0021E0892B09F420E0822FCE
:1001E000089580E090E0892B29F00E94E7008111BA
:1001F0000C9400000895FC01A48DA80FB92FB11D27
:10020000A35ABF4F2C91848D90E001968F7399274C
:10021000848FA689B7892C93A089B1898C9183702A
:1002200080648C93938D848D981306C00288F38923
:10023000E02D80818F7D80830895EF92FF920F9350
:100240001F93CF93DF93EC0181E0888F9B8D8C8D82
:1002500098131AC0E889F989808185FF15C09FB776
:10026000F894EE89FF896083E889F9898081837039
:10027000806480839FBF81E090E0DF91CF911F91E8
:100280000F91FF90EF900895F62E0B8D10E00F5F09
:100290001F4F0F731127E02E8C8D8E110CC00FB6DF
:1002A00007FCFACFE889F989808185FFF5CFCE0177
:1002B0000E94FB00F1CFEB8DEC0FFD2FF11DE35AF7
:1002C000FF4FF0829FB7F8940B8FEA89FB898081FA
:1002D0008062CFCFCF93DF93EC01888D8823B9F074
:1002E000AA89BB89E889F9898C9185FD03C0808141
:1002F00086FD0DC00FB607FCF7CF8C9185FFF2CFBE
:10030000808185FFEDCFCE010E94FB00E9CFDF9118
:10031000CF9108953FB7F894809161019091620167
:10032000A0916301B091640126B5A89B05C02F3F41
:1003300019F00196A11DB11D3FBFBA2FA92F982F0B
:100340008827BC01CD01620F711D811D911D42E006
:10035000660F771F881F991F4A95D1F70895FC01F2
:1003600001900020E9F73197AF01481B590BBC0100
:1003700087E691E00C947D00CF93DF930E94AF015C
:10038000EC0186E191E00E94AF018C0F9D1FDF918F
:10039000CF9108951F920F920FB60F9211242F93B1
:1003A0003F934F935F936F937F938F939F93AF93FD
:1003B000BF93EF93FF9387E691E00E94FB00FF91CC
:1003C000EF91BF91AF919F918F917F916F915F91CD
:1003D0004F913F912F910F900FBE0F901F90189546
:1003E0001F920F920FB60F9211242F938F939F930A
:1003F000EF93FF93E0917701F09178018081E09194
:100400007D01F0917E0182FD1BC090818091800171
:100410008F5F8F7320918101821741F0E0918001FD
:10042000F0E0E959FE4F958F80938001FF91EF91A5
:100430009F918F912F910F900FBE0F901F90189545
:100440008081F4CF1F920F920FB60F9211242F9339
:100450003F938F939F93AF93BF9380915D01909152
:100460005E01A0915F01B091600130915C0123E0D9
:10047000230F2D3758F50196A11DB11D20935C0166
:1004800080935D0190935E01A0935F01B093600142
:100490008091610190916201A0916301B09164012A
:1004A0000196A11DB11D8093610190936201A093FB
:1004B0006301B0936401BF91AF919F918F913F9180
:1004C0002F910F900FBE0F901F90189526E8230FC5
:1004D0000296A11DB11DD2CFCF93DF93CDB7DEB76A
:1004E000A1970FB6F894DEBF0FBECDBF789484B548
:1004F000826084BD84B5816084BD85B5826085BD20
:1005000085B5816085BD80916E00816080936E00AD
:10051000109281008091810082608093810080919F
:100520008100816080938100809180008160809350
:1005300080008091B10084608093B1008091B00010
:1005400081608093B00080917A00846080937A000B
:1005500080917A00826080937A0080917A00816035
:1005600080937A0080917A00806880937A0010925C
:10057000C100E0917701F091780182E08083E09101
:100580007301F09174011082E0917501F091760190
:100590008FEC808310927F01E0917B01F0917C01D0
:1005A00086E08083E0917901F0917A018081806119
:1005B0008083E0917901F0917A0180818860808365
:1005C000E0917901F0917A01808180688083E091E7
:1005D0007901F0917A0180818F7D8083E3E9F0E0F9
:1005E0002491EFE7F0E08491882399F090E0880F60
:1005F000991FFC01EE58FF4FA591B491FC01E859F9
:10060000FF4F859194918FB7F894EC91E22BEC9386
:100610008FBF7AE0872E912CA12CB12CE0E02E2EFA
:10062000E0E03E2E0E945E0424E630E040E050E030
:100630000E94B6046F5F7F4F8F4F9F4F709366018C
:100640006093650189E191E00E94AF01C09065016E
:10065000D09066010D2C000CEE08FF08F7FE8BC051
:100660006DE287E691E00E941D0122273327A90150
:100670002C193D094E095F0919A28E010F5D1F4F0C
:10068000CA01B901A50194010E94E804605DF80166
:1006900062938F01211531054105510589F7011537
:1006A000110519F0C8010E94AF018EE191E00E948E
:1006B000AF01E0916501F0916601CF0163E070E068
:1006C0000E94190521E030E0892B11F030E020E094
:1006D000CF0165E070E00E94190541E050E0892BF0
:1006E00011F050E040E0CA01880F991F820F931F5C
:1006F000249FB001259F700D349F700D1124860F2B
:10070000971F8130910509F45AC00CF04AC0892B1B
:1007100009F450C00E948A012B013C0180E2C82EDE
:1007200083E0D82EE12CF12C0E948A01641975090E
:1007300086099709683E734081059105A8F3F1E0A9
:10074000CF1AD108E108F10828EE420E23E0521E2C
:10075000611C711CC114D104E104F10429F72114B6
:10076000310409F45FCF0E94E700882309F45ACFCF
:100770000E94000057CFA701960119A28E010F5DBC
:100780001F4FCA01B901A50194010E94E804605DF0
:10079000F80162938F01211531054105510589F753
:1007A0007ECF8230910571F0049709F0B3CF8EE4CB
:1007B00091E002C087E291E00E94BC01ABCF82E4ED
:1007C00091E0FACF8FE491E0F7CFE7E6F1E0138212
:1007D000128288EE93E0A0E0B0E084839583A68344
:1007E000B78388E091E09183808385EC90E09587E2
:1007F000848784EC90E09787868780EC90E0918BEB
:10080000808B81EC90E0938B828B82EC90E0958BD7
:10081000848B86EC90E0978B868B118E128E138ED4
:10082000148E08958F929F92AF92BF92CF92DF92D3
:10083000EF92FF92CF93DF93EC01688179818A81F7
:100840009B81611571058105910521F464E279EDC3
:100850008BE597E02DE133EF41E050E00E94B604D4
:1008600049015A019B01AC01A7EAB1E40E94D504F9
:100870006B017C01ACEEB4EFA50194010E94E3048E
:10088000C60ED71EE81EF91EF7FE06C081E0C81A84
:10089000D108E10880E8F80AC882D982EA82FB829E
:1008A000C701B6019F77DF91CF91FF90EF90DF9066
:1008B000CF90BF90AF909F908F9008958F929F920E
:1008C000AF92BF92CF92DF92EF92FF9260910001C0
:1008D00070910101809102019091030161157105F0
:1008E0008105910521F464E279ED8BE597E02DE136
:1008F00033EF41E050E00E94B60449015A019B01E8
:10090000AC01A7EAB1E40E94D5046B017C01ACEE16
:10091000B4EFA50194010E94E304C60ED71EE81EA1
:10092000F91EF7FE06C081E0C81AD108E10880E888
:10093000F80AC0920001D0920101E0920201F09207
:100940000301C701B6019F77FF90EF90DF90CF9032
:10095000BF90AF909F908F90089560930001709327
:10096000010180930201909303010895052E97FBE6
:100970001EF400940E94CD0457FD07D00E94E804A5
:1009800007FC03D04EF40C94CD045095409530955F
:1009900021953F4F4F4F5F4F0895909580957095EB
:1009A00061957F4F8F4F9F4F08950E940A05A59F25
:1009B000900DB49F900DA49F800D911D112408955A
:1009C000B7FF0C94D5040E94D504821B930B0895A5
:1009D000A1E21A2EAA1BBB1BFD010DC0AA1FBB1F43
:1009E000EE1FFF1FA217B307E407F50720F0A21BB5
:1009F000B30BE40BF50B661F771F881F991F1A9422
:100A000069F760957095809590959B01AC01BD014B
:100A1000CF010895A29FB001B39FC001A39F700DA5
:100A2000811D1124911DB29F700D811D1124911DF6
:100A3000089597FB072E16F4009407D077FD09D090
:100A40000E942D0507FC05D03EF4909581959F4F9F
:100A50000895709561957F4F0895AA1BBB1B51E1C6
:100A600007C0AA1FBB1FA617B70710F0A61BB70B1E
:100A7000881F991F5A95A9F780959095BC01CD01C3
:100A80000895EE0FFF1F0590F491E02D0994F8945E
:020A9000FFCF96
:100A920001000000000000001D017D00AA006A01A3
:100AA200DB00B900CD000D0A0069203A20002020A9
:100AB2002020202020200033EAB3BC2035EC9D9872
:100AC20020EBB0B0EC8898EAB08020EC9584EB8BF8
:100AD200980033EC9D9820EBB0B0EC88980031354B
:0C0AE200EC9D9820EBB0B0EC8898000070
:00000001FF
