:100000000C9462000C948A000C948A000C948A0070
:100010000C948A000C948A000C948A000C948A0038
:100020000C948A000C948A000C948A000C948A0028
:100030000C948A000C948A000C948A000C948A0018
:100040000C949C020C948A000C946A020C94440256
:100050000C948A000C948A000C948A000C948A00F8
:100060000C948A000C948A000000000024002700F1
:100070002A000000000023002600290000000000E4
:10008000250028002B0004040404040404040202D4
:100090000202020203030303030301020408102007
:1000A0004080010204081020010204081020000012
:1000B0000008000201000003040700000000000027
:1000C0000000510411241FBECFEFD8E0DEBFCDBF2A
:1000D00011E0A0E0B1E0ECE0F9E002C005900D9283
:1000E000A831B107D9F721E0A8E1B1E001C01D9224
:1000F000AE3BB207E1F710E0C2E6D0E004C02197C2
:10010000FE010E947E04C136D107C9F70E94E602B3
:100110000C9484040C940000AF92BF92CF92DF92B3
:10012000EF92FF920F931F93CF93DF936C017B01AC
:100130008B01040F151FEB015E01AE18BF08C0173D
:10014000D10759F06991D601ED91FC910190F081B0
:10015000E02DC6010995892B79F7C501DF91CF9173
:100160001F910F91FF90EF90DF90CF90BF90AF90D5
:100170000895FC01538D448D252F30E0842F90E0AD
:10018000821B930B541710F0CF9608950197089592
:10019000FC01918D828D981761F0A28DAE0FBF2F5B
:1001A000B11D5D968C91928D9F5F9F73928F90E0B1
:1001B00008958FEF9FEF0895FC01918D828D981720
:1001C00031F0828DE80FF11D858D90E008958FEF5D
:1001D0009FEF0895FC01918D228D892F90E0805C26
:1001E0009F4F821B91098F739927089581E291E0B7
:1001F0000E94EA0021E0892B09F420E0822F089573
:1002000080E090E0892B29F00E94F60081110C9487
:1002100000000895FC01A48DA80FB92FB11DA35AA9
:10022000BF4F2C91848D90E001968F739927848F16
:10023000A689B7892C93A089B1898C918370806439
:100240008C93938D848D981306C00288F389E02DDA
:1002500080818F7D80830895EF92FF920F931F938B
:10026000CF93DF93EC0181E0888F9B8D8C8D981369
:100270001AC0E889F989808185FF15C09FB7F89475
:10028000EE89FF896083E889F989808183708064C1
:1002900080839FBF81E090E0DF91CF911F910F910C
:1002A000FF90EF900895F62E0B8D10E00F5F1F4F1B
:1002B0000F731127E02E8C8D8E110CC00FB607FC2A
:1002C000FACFE889F989808185FFF5CFCE010E94B8
:1002D0000A01F1CFEB8DEC0FFD2FF11DE35AFF4F1B
:1002E000F0829FB7F8940B8FEA89FB898081806246
:1002F000CFCFCF93DF93EC01888D8823B9F0AA8903
:10030000BB89E889F9898C9185FD03C0808186FDD0
:100310000DC00FB607FCF7CF8C9185FFF2CF80811F
:1003200085FFEDCFCE010E940A01E9CFDF91CF9189
:100330000895833081F028F4813099F08230A9F05B
:1003400008958730A9F08830C9F08430B1F48091E5
:1003500080008F7D03C0809180008F778093800024
:10036000089584B58F7784BD089584B58F7DFBCFC4
:100370008091B0008F778093B00008958091B00095
:100380008F7DF9CF1F93CF93DF93E2EBF0E0949151
:10039000EEE9F0E0D491EAE8F0E0C491CC23B9F0C2
:1003A000182F992319F0892F0E949901EC2FF0E062
:1003B000EE0FFF1FE458FF4FA591B4918FB7F8944B
:1003C000EC91111108C0D095DE23DC938FBFDF9133
:1003D000CF911F910895DE2BF8CF3FB7F89480910D
:1003E0001D0190911E01A0911F01B091200126B521
:1003F000A89B05C02F3F19F00196A11DB11D3FBF5D
:10040000BA2FA92F982F8827BC01CD01620F711D2B
:10041000811D911D42E0660F771F881F991F4A9525
:10042000D1F708958F929F92AF92BF92CF92DF92B1
:10043000EF92FF924B015C010E94ED016B017C0188
:100440000E94ED016C197D098E099F09683E734079
:1004500081059105A8F321E0821A9108A108B1084D
:1004600088EEC80E83E0D81EE11CF11C81149104B3
:10047000A104B10429F7FF90EF90DF90CF90BF90D7
:10048000AF909F908F9008951F920F920FB60F928A
:1004900011242F933F934F935F936F937F938F9389
:1004A0009F93AF93BF93EF93FF9381E291E00E94FC
:1004B0000A01FF91EF91BF91AF919F918F917F9131
:1004C0006F915F914F913F912F910F900FBE0F90C1
:1004D0001F9018951F920F920FB60F9211242F9311
:1004E0008F939F93EF93FF93E0913101F09132014D
:1004F0008081E0913701F091380182FD1BC090812D
:1005000080913A018F5F8F7320913B01821741F0F8
:10051000E0913A01F0E0EF5DFE4F958F80933A0154
:10052000FF91EF919F918F912F910F900FBE0F90A0
:100530001F9018958081F4CF1F920F920FB60F92E3
:1005400011242F933F938F939F93AF93BF938091E9
:10055000190190911A01A0911B01B0911C013091D9
:10056000180123E0230F2D3758F50196A11DB11D69
:10057000209318018093190190931A01A0931B01F5
:10058000B0931C0180911D0190911E01A0911F014B
:10059000B09120010196A11DB11D80931D01909382
:1005A0001E01A0931F01B0932001BF91AF919F91B5
:1005B0008F913F912F910F900FBE0F901F90189524
:1005C00026E8230F0296A11DB11DD2CFCF93DF9352
:1005D000CDB7DEB7A1970FB6F894DEBF0FBECDBF83
:1005E000789484B5826084BD84B5816084BD85B50E
:1005F000826085BD85B5816085BD80916E0081601A
:1006000080936E00109281008091810082608093BF
:1006100081008091810081608093810080918000C1
:100620008160809380008091B10084608093B100EC
:100630008091B00081608093B00080917A008460E6
:1006400080937A0080917A00826080937A00809112
:100650007A00816080937A0080917A00806880932C
:100660007A001092C100E0913101F091320182E0F4
:100670008083E0912D01F0912E011082E0912F01F5
:10068000F09130018FEC808310923901E0913501B7
:10069000F091360186E08083E0913301F0913401DE
:1006A000808180618083E0913301F0913401808109
:1006B00088608083E0913301F0913401808180680B
:1006C0008083E0913301F091340180818F7D8083BC
:1006D0006DE9662E60E0762EF301249179E8C72E4D
:1006E00070E0D72EF60184918823C9F090E0880F3E
:1006F000991FFC01E859FF4FA591B491FC01E45802
:10070000FF4F459154913FB7F8949C91822F80956B
:1007100098239C93FA019081892380833FBFEEE95F
:10072000F0E02491EAE8F0E08491882399F090E0E9
:10073000880F991FFC01E859FF4FA591B491FC0166
:10074000E458FF4F859194918FB7F894EC91E22B88
:10075000EC938FBF91EB492E90E0592E7E01F0E291
:10076000EF0EF11C20E0A22E20E0B22E882483940C
:10077000912CF2018491F3011491F601049100236C
:1007800009F448C081110E949901E02FF0E0EE0FBA
:10079000FF1FEE58FF4FA591B4918C91182391E063
:1007A00080E009F490E0092F182F19A280E3800F50
:1007B00088A3F70101900020E9F73197AF014E19A6
:1007C0005F09B70181E291E00E948C0042E050E0B5
:1007D00064E171E081E291E00E948C00013011053A
:1007E000E1F080E00E94C20168EC70E080E090E0FF
:1007F0000E9412029092010180920001A114B104A2
:1008000009F4B7CF0E94F600882309F4B2CF0E9402
:100810000000AFCF10E000E0C8CF809100019091C0
:1008200001010197D1F581E00E94C20164EF71E0FE
:1008300080E090E00E94120280E00E94C20164EF1A
:1008400071E080E090E00E94120281E00E94C2010B
:1008500064EF71E080E090E00E94120280E00E946C
:10086000C20164EF71E080E090E00E94120281E03A
:100870000E94C20164EF71E080E090E00E941202E9
:1008800080E00E94C20164EF71E080E090E00E948D
:100890001202109201011092000181E00E94C20137
:1008A000ADCFE1E2F1E01382128288EE93E0A0E0A6
:1008B000B0E084839583A683B78386E091E091833B
:1008C000808385EC90E09587848784EC90E097871F
:1008D000868780EC90E0918B808B81EC90E0938B0D
:1008E000828B82EC90E0958B848B86EC90E0978BEA
:1008F000868B118E128E138E148E0895EE0FFF1FAD
:0C0900000590F491E02D0994F894FFCFCD
:10090C000100000000002C018C00B9007901EA0004
:08091C00C800DC000D0A000018
:00000001FF
