:100000000C9435000C945D000C945D000C945D0024
:100010000C945D000C945D000C945D000C945D00EC
:100020000C945D000C945D000C945D000C945D00DC
:100030000C945D000C945D000C945D000C945D00CC
:100040000C943A020C945D000C9408020C94E201AA
:100050000C945D000C945D000C945D000C945D00AC
:100060000C945D000C945D00A20311241FBECFEF21
:10007000D8E0DEBFCDBF11E0A0E0B1E0E2E4F8E0FF
:1000800002C005900D92AA32B107D9F721E0AAE289
:10009000B1E001C01D92A03DB207E1F710E0C5E359
:1000A000D0E004C02197FE010E941904C433D10797
:1000B000C9F70E9484020C941F040C940000AF92B4
:1000C000BF92CF92DF92EF92FF920F931F93CF9345
:1000D000DF936C017B018B01040F151FEB015E01A7
:1000E000AE18BF08C017D10759F06991D601ED913C
:1000F000FC910190F081E02DC6010995892B79F7DB
:10010000C501DF91CF911F910F91FF90EF90DF908C
:10011000CF90BF90AF900895FC01538D448D252F53
:1001200030E0842F90E0821B930B541710F0CF9691
:10013000089501970895FC01918D828D981761F0C3
:10014000A28DAE0FBF2FB11D5D968C91928D9F5FDA
:100150009F73928F90E008958FEF9FEF0895FC01B9
:10016000918D828D981731F0828DE80FF11D858D6C
:1001700090E008958FEF9FEF0895FC01918D228DFF
:10018000892F90E0805C9F4F821B91098F73992784
:10019000089583E391E00E94BD0021E0892B09F4DA
:1001A00020E0822F089580E090E0892B29F00E94C2
:1001B000C90081110C9400000895FC01A48DA80FC2
:1001C000B92FB11DA35ABF4F2C91848D90E0019699
:1001D0008F739927848FA689B7892C93A089B189B9
:1001E0008C91837080648C93938D848D981306C05A
:1001F0000288F389E02D80818F7D80830895EF92BE
:10020000FF920F931F93CF93DF93EC0181E0888FD0
:100210009B8D8C8D98131AC0E889F989808185FFA0
:1002200015C09FB7F894EE89FF896083E889F98942
:1002300080818370806480839FBF81E090E0DF9144
:10024000CF911F910F91FF90EF900895F62E0B8D97
:1002500010E00F5F1F4F0F731127E02E8C8D8E1152
:100260000CC00FB607FCFACFE889F989808185FFB9
:10027000F5CFCE010E94DD00F1CFEB8DEC0FFD2F0D
:10028000F11DE35AFF4FF0829FB7F8940B8FEA8974
:10029000FB8980818062CFCFCF93DF93EC01888D83
:1002A0008823B9F0AA89BB89E889F9898C9185FDF1
:1002B00003C0808186FD0DC00FB607FCF7CF8C917F
:1002C00085FFF2CF808185FFEDCFCE010E94DD005A
:1002D000E9CFDF91CF9108953FB7F89480912F0136
:1002E00090913001A0913101B091320126B5A89BC7
:1002F00005C02F3F19F00196A11DB11D3FBFBA2FB8
:10030000A92F982F8827BC01CD01620F711D811D77
:10031000911D42E0660F771F881F991F4A95D1F7FC
:100320000895FC0101900020E9F73197AF01481BC7
:10033000590BBC0183E391E00C945F008F929F9274
:10034000AF92BF920F931F93CF93DF93CDB7DEB7DA
:10035000A1970FB6F894DEBF0FBECDBF19A24230F1
:1003600008F44AE08E010F5D1F4F842E912CB12CB2
:10037000A12CA50194010E94E303E62FB901CA0153
:10038000EA30F4F4E05DD801EE938D01232B242BA9
:10039000252B79F790E080E0109719F0CD010E94AD
:1003A0009101A1960FB6F894DEBF0FBECDBFDF91CD
:1003B000CF911F910F91BF90AF909F908F90089514
:1003C000E95CE1CF1F920F920FB60F9211242F9389
:1003D0003F934F935F936F937F938F939F93AF93CD
:1003E000BF93EF93FF9383E391E00E94DD00FF91C1
:1003F000EF91BF91AF919F918F917F916F915F919D
:100400004F913F912F910F900FBE0F901F90189515
:100410001F920F920FB60F9211242F938F939F93D9
:10042000EF93FF93E0914301F09144018081E091CB
:100430004901F0914A0182FD1BC0908180914C01DD
:100440008F5F8F7320914D01821741F0E0914C0135
:10045000F0E0ED5CFE4F958F80934C01FF91EF91A2
:100460009F918F912F910F900FBE0F901F90189515
:100470008081F4CF1F920F920FB60F9211242F9309
:100480003F938F939F93AF93BF9380912B01909154
:100490002C01A0912D01B0912E0130912A0123E071
:1004A000230F2D3758F50196A11DB11D20932A0168
:1004B00080932B0190932C01A0932D01B0932E01DA
:1004C00080912F0190913001A0913101B0913201C2
:1004D0000196A11DB11D80932F0190933001A0932F
:1004E0003101B0933201BF91AF919F918F913F91B4
:1004F0002F910F900FBE0F901F90189526E8230F95
:100500000296A11DB11DD2CF789484B5826084BDBE
:1005100084B5816084BD85B5826085BD85B5816007
:1005200085BD80916E00816080936E001092810085
:100530008091810082608093810080918100816040
:100540008093810080918000816080938000809101
:10055000B10084608093B1008091B000816080938D
:10056000B00080917A00846080937A0080917A0054
:10057000826080937A0080917A00816080937A0013
:1005800080917A00806880937A001092C100E09197
:100590004301F091440182E08083E0913F01F091BA
:1005A00040011082E0914101F09142018FEC808383
:1005B00010924B01E0914701F091480186E0808361
:1005C000E0914501F0914601808180618083E09156
:1005D0004501F0914601808188608083E09145016A
:1005E000F0914601808180688083E0914501F0911F
:1005F000460180818F7D808398EE292E93E0392EED
:1006000088248A9423E0922E30E0A32E30E0B32E8B
:100610000BE010E0D0E0C0E020E420937C0080916B
:100620007A00806480937A0080917A0086FDFCCF06
:100630008091780090917900C80FD91F0E946C01B9
:100640002B013C0182E3C82ED12CE12CF12C0E941D
:100650006C016419750986099709683E7340810524
:100660009105A8F381E0C81AD108E108F10828EE45
:10067000420E23E0521E611C711CC114D104E1041E
:10068000F10429F70150110939F6CE016AE070E052
:100690000E94CF03EB0182E191E00E9491016E0183
:1006A0000D2E000CEE08FF084AE0C701B601D7FF87
:1006B0000DC06DE283E391E00E94FF00662777277B
:1006C000CB016C197D098E099F094AE00E949E01A9
:1006D00088E191E00E9491018CE191E00E949101FA
:1006E000C29DC001C39D900DD29D900D1124B401F7
:1006F0000E94CF036B01770FEE08FF084AE0C701A5
:10070000B601F7FE0DC06DE283E391E00E94FF00A9
:1007100066277727CB016C197D098E099F094AE06E
:100720000E949E0186E291E00E949101A114B10411
:1007300009F46ECF0E94C900882309F469CF0E9492
:10074000000066CFE3E3F1E01382128288EE93E0CB
:10075000A0E0B0E084839583A683B78384E091E032
:100760009183808385EC90E09587848784EC90E08A
:100770009787868780EC90E0918B808B81EC90E06E
:10078000938B828B82EC90E0958B848B86EC90E04F
:10079000978B868B118E128E138E148E089597FB75
:1007A000072E16F4009407D077FD09D00E940504A7
:1007B00007FC05D03EF4909581959F4F0895709564
:1007C00061957F4F0895A1E21A2EAA1BBB1BFD0164
:1007D0000DC0AA1FBB1FEE1FFF1FA217B307E40720
:1007E000F50720F0A21BB30BE40BF50B661F771F78
:1007F000881F991F1A9469F7609570958095909558
:100800009B01AC01BD01CF010895AA1BBB1B51E1A7
:1008100007C0AA1FBB1FA617B70710F0A61BB70B70
:10082000881F991F5A95A9F780959095BC01CD0115
:100830000895EE0FFF1F0590F491E02D0994F894B0
:02084000FFCFE8
:1008420000000000FF005F008C004C01BD009B0017
:10085200AF0076616C3A200020202000566F6C7445
:0A0862006167653A20000D0A0000EE
:00000001FF
