:100000000C945D000C9485000C9485000C94850084
:100010000C9485000C9485000C9485000C9485004C
:100020000C9485000C9485000C9485000C9485003C
:100030000C9485000C9485000C9485000C9485002C
:100040000C9400030C9485000C94CE020C94A8022E
:100050000C9485000C9485000C9485000C9485000C
:100060000C9485000C9485000000000024002700FB
:100070002A0000000000250028002B0004040404CE
:100080000404040402020202020203030303030342
:10009000010204081020408001020408102001021F
:1000A00004081020000000080002010000030407FB
:1000B00000000000000000004A0311241FBECFEF23
:1000C000D8E0DEBFCDBF11E0A0E0B1E0EAE1FBE0A7
:1000D00002C005900D92A232B107D9F721E0A2E249
:1000E000B1E001C01D92AA3CB207E1F710E0CDE5F6
:1000F000D0E004C02197FE010E948505CC35D107D0
:10010000C9F70E9487030C948B050C940000E7EA62
:10011000F0E02491E3E9F0E09491EFE7F0E0E4917E
:10012000EE23C9F0222339F0233001F1A8F4213065
:1001300019F1223029F1F0E0EE0FFF1FEE58FF4FCA
:10014000A591B4912FB7F894EC91811126C09095A8
:100150009E239C932FBF08952730A9F02830C9F023
:10016000243049F7209180002F7D03C0209180002A
:100170002F7720938000DFCF24B52F7724BDDBCFEE
:1001800024B52F7DFBCF2091B0002F772093B000B6
:10019000D2CF2091B0002F7DF9CF9E2BDACFAF9236
:1001A000BF92CF92DF92EF92FF920F931F93CF9364
:1001B000DF936C017B018B01040F151FEB015E01C6
:1001C000AE18BF08C017D10759F06991D601ED915B
:1001D000FC910190F081E02DC6010995892B79F7FA
:1001E000C501DF91CF911F910F91FF90EF90DF90AC
:1001F000CF90BF90AF900895FC01538D448D252F73
:1002000030E0842F90E0821B930B541710F0CF96B0
:10021000089501970895FC01918D828D981761F0E2
:10022000A28DAE0FBF2FB11D5D968C91928D9F5FF9
:100230009F73928F90E008958FEF9FEF0895FC01D8
:10024000918D828D981731F0828DE80FF11D858D8B
:1002500090E008958FEF9FEF0895FC01918D228D1E
:10026000892F90E0805C9F4F821B91098F739927A3
:1002700008958BE291E00E942D0121E0892B09F481
:1002800020E0822F089580E090E0892B29F00E94E1
:10029000390181110C9400000895FC01A48DA80F70
:1002A000B92FB11DA35ABF4F2C91848D90E00196B8
:1002B0008F739927848FA689B7892C93A089B189D8
:1002C0008C91837080648C93938D848D981306C079
:1002D0000288F389E02D80818F7D80830895EF92DD
:1002E000FF920F931F93CF93DF93EC0181E0888FF0
:1002F0009B8D8C8D98131AC0E889F989808185FFC0
:1003000015C09FB7F894EE89FF896083E889F98961
:1003100080818370806480839FBF81E090E0DF9163
:10032000CF911F910F91FF90EF900895F62E0B8DB6
:1003300010E00F5F1F4F0F731127E02E8C8D8E1171
:100340000CC00FB607FCFACFE889F989808185FFD8
:10035000F5CFCE010E944D01F1CFEB8DEC0FFD2FBB
:10036000F11DE35AFF4FF0829FB7F8940B8FEA8993
:10037000FB8980818062CFCFCF93DF93EC01888DA2
:100380008823B9F0AA89BB89E889F9898C9185FD10
:1003900003C0808186FD0DC00FB607FCF7CF8C919E
:1003A00085FFF2CF808185FFEDCFCE010E944D0108
:1003B000E9CFDF91CF9108953FB7F894809127015D
:1003C00090912801A0912901B0912A0126B5A89BFE
:1003D00005C02F3F19F00196A11DB11D3FBFBA2FD7
:1003E000A92F982F8827BC01CD01620F711D811D97
:1003F000911D42E0660F771F881F991F4A95D1F71C
:1004000008958F929F92AF92BF92CF92DF92EF9218
:10041000FF920E94DC014B015C0184E6C82ED12CC6
:10042000E12CF12C0E94DC01681979098A099B09E9
:10043000683E734081059105A8F321E0C21AD108F6
:10044000E108F10888EE880E83E0981EA11CB11C1B
:10045000C114D104E104F10429F7FF90EF90DF907B
:10046000CF90BF90AF909F908F900895FC01019026
:100470000020E9F73197AF01481B590BBC018BE213
:1004800091E00C94CF008F929F92AF92BF920F9306
:100490001F93CF93DF93CDB7DEB7A1970FB6F89434
:1004A000DEBF0FBECDBF19A2423008F44AE08E0174
:1004B0000F5D1F4F842E912CB12CA12CA50194010E
:1004C0000E945405E62FB901CA01EA30F4F4E05D58
:1004D000D801EE938D01232B242B252B79F790E067
:1004E00080E0109719F0CD010E943602A1960FB658
:1004F000F894DEBF0FBECDBFDF91CF911F910F915A
:10050000BF90AF909F908F900895E95CE1CFCF921C
:10051000DF92EF92FF92CF93DF936B017C016DE24C
:100520008BE291E00E946F01EC0166277727CB01F7
:100530006C197D098E099F094AE00E9443028C0FC5
:100540009D1FDF91CF91FF90EF90DF90CF900895A6
:100550001F920F920FB60F9211242F933F934F9338
:100560005F936F937F938F939F93AF93BF93EF931B
:10057000FF938BE291E00E944D01FF91EF91BF91BB
:10058000AF919F918F917F916F915F914F913F912B
:100590002F910F900FBE0F901F9018951F920F92E2
:1005A0000FB60F9211242F938F939F93EF93FF9386
:1005B000E0913B01F0913C018081E0914101F0919B
:1005C000420182FD1BC09081809144018F5F8F7337
:1005D00020914501821741F0E0914401F0E0E55D92
:1005E000FE4F958F80934401FF91EF919F918F91E2
:1005F0002F910F900FBE0F901F9018958081F4CF10
:100600001F920F920FB60F9211242F933F938F9347
:100610009F93AF93BF938091230190912401A09168
:100620002501B09126013091220123E0230F2D37BF
:1006300058F50196A11DB11D20932201809323013D
:1006400090932401A0932501B09326018091270166
:1006500090912801A0912901B0912A010196A11D34
:10066000B11D8093270190932801A0932901B09395
:100670002A01BF91AF919F918F913F912F910F9040
:100680000FBE0F901F90189526E8230F0296A11D0C
:10069000B11DD2CFEBE2F1E01382128288EE93E03B
:1006A000A0E0B0E084839583A683B78388E091E0DF
:1006B0009183808385EC90E09587848784EC90E03B
:1006C0009787868780EC90E0918B808B81EC90E01F
:1006D000938B828B82EC90E0958B848B86EC90E000
:1006E000978B868B118E128E138E148E0E94CA04E5
:1006F00024E630E040E050E00E9422056F5F7F4F2B
:100700008F4F9F4F7093C9016093C80108957894EB
:1007100084B5826084BD84B5816084BD85B5826006
:1007200085BD85B5816085BD80916E0081608093B7
:100730006E00109281008091810082608093810020
:100740008091810081608093810080918000816030
:10075000809380008091B10084608093B10080918B
:10076000B00081608093B00080917A0084608093B3
:100770007A0080917A00826080937A0080917A007A
:10078000816080937A0080917A00806880937A00FB
:100790001092C100E0913B01F0913C0182E0808326
:1007A000E0913701F09138011082E0913901F09128
:1007B0003A018FEC808310924301E0913F01F09168
:1007C000400186E08083E0913D01F0913E0180810F
:1007D00080618083E0913D01F0913E0180818860DD
:1007E0008083E0913D01F0913E01808180688083AB
:1007F000E0913D01F0913E0180818F7D8083E3E9AE
:10080000F0E02491EFE7F0E08491882399F090E004
:10081000880F991FFC01E859FF4FA591B491FC0185
:10082000EE58FF4F859194918FB7F894EC91E22B9D
:10083000EC938FBF84E6C82ED12CE12CF12CC0E0C4
:10084000D0E081E00E9487006091C8017091C901E9
:10085000072E000C880B990B97FF4CC00E94870253
:1008600086E191E00E9436028AE191E00E94360220
:100870000E94CA04A70196010E942205DC01CB0157
:100880000196A11DB11D8C019093C9018093C801EF
:100890000E9401020A351105A4F280E00E9487003F
:1008A000B801110F880B990B4AE00E9443028DE1B9
:1008B00091E00E9436028AE191E00E9436020E9495
:1008C000CA04A70196010E9422056F5F7F4F8F4FD8
:1008D0009F4F7093C9016093C8010E940102209745
:1008E00009F4AFCF0E943901882309F4AACF0E94EE
:1008F0000000A7CF4AE00E944302B2CF8F929F929E
:10090000AF92BF92CF92DF92EF92FF92CF93DF939D
:10091000EC01688179818A819B816115710581056E
:10092000910521F464E279ED8BE597E02DE133EF59
:1009300041E050E00E94220549015A019B01AC01AF
:10094000A7EAB1E40E9441056B017C01ACEEB4EF73
:10095000A50194010E944F05C60ED71EE81EF91E80
:10096000F7FE06C081E0C81AD108E10880E8F80A5D
:10097000C882D982EA82FB82C701B6019F77DF91E4
:10098000CF91FF90EF90DF90CF90BF90AF909F906E
:100990008F9008958F929F92AF92BF92CF92DF92E5
:1009A000EF92FF926091000170910101809102012C
:1009B00090910301611571058105910521F464E2AF
:1009C00079ED8BE597E02DE133EF41E050E00E94B7
:1009D000220549015A019B01AC01A7EAB1E40E943A
:1009E00041056B017C01ACEEB4EFA50194010E94BE
:1009F0004F05C60ED71EE81EF91EF7FE06C081E0A1
:100A0000C81AD108E10880E8F80AC0920001D09223
:100A10000101E0920201F0920301C701B6019F7744
:100A2000FF90EF90DF90CF90BF90AF909F908F900E
:100A300008956093000170930101809302019093E7
:100A400003010895052E97FB1EF400940E943905BA
:100A500057FD07D00E94540507FC03D04EF40C94B8
:100A6000390550954095309521953F4F4F4F5F4F39
:100A7000089590958095709561957F4F8F4F9F4F0A
:100A800008950E947605A59F900DB49F900DA49F98
:100A9000800D911D11240895B7FF0C9441050E940B
:100AA0004105821B930B0895A1E21A2EAA1BBB1BC2
:100AB000FD010DC0AA1FBB1FEE1FFF1FA217B3072A
:100AC000E407F50720F0A21BB30BE40BF50B661F40
:100AD000771F881F991F1A9469F760957095809504
:100AE00090959B01AC01BD01CF010895A29FB0017B
:100AF000B39FC001A39F700D811D1124911DB29F52
:100B0000700D811D1124911D0895EE0FFF1F05909A
:0A0B1000F491E02D0994F894FFCF52
:100B1A0001000000000000006F01CF00FC00BC01D2
:100B2A002D010B011F01206F6E000D0A006F666612
:020B3A000000B9
:00000001FF
