:100000000C945D000C9485000C9485000C94850084
:100010000C9485000C9485000C9485000C9485004C
:100020000C9485000C9485000C9485000C9485003C
:100030000C9485000C9485000C9485000C9485002C
:100040000C94A2030C9485000C9470030C944A0346
:100050000C9485000C9485000C9485000C9485000C
:100060000C9485000C94850000000008000201003B
:100070000003040700000000000000000000000072
:10008000250028002B0000000000240027002A0083
:10009000040404040404040402020202020203032E
:1000A0000303030301020408102040800102040836
:1000B0001020010204081020960511241FBECFEF66
:1000C000D8E0DEBFCDBF11E0A0E0B1E0E2EAF0E1B0
:1000D00002C005900D92AE32B107D9F721E0AEE231
:1000E000B1E001C01D92A43DB207E1F710E0CDE5FB
:1000F000D0E004C02197FE010E944908CC35D10709
:10010000C9F70E94EC030C944F080C940000E7EA36
:10011000F0E02491E3E9F0E08491882399F090E005
:10012000880F991FFC01EA57FF4FA591B491FC017C
:10013000E458FF4F859194918FB7F894EC91E22B9E
:10014000EC938FBF0895EBE6F0E02491E7EAF0E04E
:100150009491E3E9F0E0E491EE23C9F0222339F031
:10016000233001F1A8F4213019F1223029F1F0E017
:10017000EE0FFF1FE458FF4FA591B4912FB7F894ED
:10018000EC91811126C090959E239C932FBF0895DA
:100190002730A9F02830C9F0243049F72091800099
:1001A0002F7D03C0209180002F7720938000DFCF28
:1001B00024B52F7724BDDBCF24B52F7DFBCF209135
:1001C000B0002F772093B000D2CF2091B0002F7DC8
:1001D000F9CF9E2BDACFAF92BF92CF92DF92EF9200
:1001E000FF920F931F93CF93DF936C017B018B01E1
:1001F000040F151FEB015E01AE18BF08C017D10731
:1002000059F06991D601ED91FC910190F081E02DBA
:10021000C6010995892B79F7C501DF91CF911F910F
:100220000F91FF90EF90DF90CF90BF90AF90089527
:10023000FC01538D448D252F30E0842F90E0821BEC
:10024000930B541710F0CF96089501970895FC0171
:10025000918D828D981761F0A28DAE0FBF2FB11DC9
:100260005D968C91928D9F5F9F73928F90E0089521
:100270008FEF9FEF0895FC01918D828D981731F0DB
:10028000828DE80FF11D858D90E008958FEF9FEF2F
:100290000895FC01918D228D892F90E0805C9F4F05
:1002A000821B91098F739927089587E391E00E943B
:1002B000490121E0892B09F420E0822F089580E094
:1002C00090E0892B29F00E94550181110C940000C7
:1002D0000895FC01A48DA80FB92FB11DA35ABF4FDB
:1002E0002C91848D90E001968F739927848FA68935
:1002F000B7892C93A089B1898C91837080648C9389
:10030000938D848D981306C00288F389E02D808137
:100310008F7D80830895EF92FF920F931F93CF9369
:10032000DF93EC0181E0888F9B8D8C8D98131AC030
:10033000E889F989808185FF15C09FB7F894EE8917
:10034000FF896083E889F989808183708064808374
:100350009FBF81E090E0DF91CF911F910F91FF90BF
:10036000EF900895F62E0B8D10E00F5F1F4F0F7367
:100370001127E02E8C8D8E110CC00FB607FCFACF22
:10038000E889F989808185FFF5CFCE010E94690156
:10039000F1CFEB8DEC0FFD2FF11DE35AFF4FF082F3
:1003A0009FB7F8940B8FEA89FB8980818062CFCF59
:1003B000CF93DF93EC01888D8823B9F0AA89BB899C
:1003C000E889F9898C9185FD03C0808186FD0DC087
:1003D0000FB607FCF7CF8C9185FFF2CF808185FFA8
:1003E000EDCFCE010E946901E9CFDF91CF91089551
:1003F0003FB7F8948091330190913401A091350179
:10040000B091360126B5A89B05C02F3F19F0019683
:10041000A11DB11D3FBFBA2FA92F982F8827BC015E
:10042000CD01620F711D811D911D42E0660F771F86
:10043000881F991F4A95D1F70895FC01019000206B
:10044000E9F73197AF01481B590BBC0187E391E0F5
:100450000C94EB008F929F92AF92BF920F931F93D9
:10046000CF93DF93CDB7DEB7A1970FB6F894DEBF79
:100470000FBECDBF19A2423008F44AE08E010F5DD5
:100480001F4F842E912CB12CA12CA50194010E9408
:100490001308E62FB901CA01EA30F4F4E05DD8018F
:1004A000EE938D01232B242B252B79F790E080E010
:1004B000109719F0CD010E941D02A1960FB6F89475
:1004C000DEBF0FBECDBFDF91CF911F910F91BF90C7
:1004D000AF909F908F900895E95CE1CF4F925F922B
:1004E0006F927F928F929F92AF92BF92CF92DF9244
:1004F000EF92FF920F931F93CF936B017C01742EA9
:10050000AC019B010E94FA07882399F084E191E0F5
:10051000CF911F910F91FF90EF90DF90CF90BF9000
:10052000AF909F908F907F906F905F904F900C94C2
:100530001D0246015701E894B7F82FEF3FEF4FE750
:100540005FE7C501B4010E94FA0781110DC02FEFCA
:100550003FEF4FE75FE7C501B4010E943006181670
:100560001CF488E191E0D4CF2FEF3FEF4FE75FE439
:10057000C701B6010E94880718161CF48CE191E0AF
:10058000C7CF2FEF3FEF4FE75FECC701B6010E94E7
:10059000300687FDF3CF20E030E0A901C701B601A6
:1005A0000E94300610E000E087FF0AC06DE287E39A
:1005B00091E00E948B018C01F7FAF094F7F8F09427
:1005C000C0E060E070E080E09FE37C1641F020E056
:1005D00030E040E251E40E943506CF5FF6CFA7013C
:1005E00096010E94C4052B013C010E94A7064B0105
:1005F0005C014AE00E942A027C01E00EF11ECC233D
:10060000C1F1C501B4010E94D6069B01AC01C30132
:10061000B2010E94C3054B015C016EE287E391E0E9
:100620000E948B01E80EF91EC15018F120E030E065
:1006300040E251E4C501B4010E948D072B013C0149
:100640000E94A7064B01B12CA12C4AE0C501B401C0
:100650000E942A02E80EF91EC501B4010E94D606C6
:100660009B01AC01C301B2010E94C3054B015C01B7
:10067000DBCFC701CF911F910F91FF90EF90DF90DB
:10068000CF90BF90AF909F908F907F906F905F9032
:100690004F9008951F920F920FB60F9211242F932F
:1006A0003F934F935F936F937F938F939F93AF93FA
:1006B000BF93EF93FF9387E391E00E946901FF915D
:1006C000EF91BF91AF919F918F917F916F915F91CA
:1006D0004F913F912F910F900FBE0F901F90189543
:1006E0001F920F920FB60F9211242F938F939F9307
:1006F000EF93FF93E0914701F09148018081E091F1
:100700004D01F0914E0182FD1BC0908180915001FE
:100710008F5F8F7320915101821741F0E09150015A
:10072000F0E0E95CFE4F958F80935001FF91EF91CF
:100730009F918F912F910F900FBE0F901F90189542
:100740008081F4CF1F920F920FB60F9211242F9336
:100750003F938F939F93AF93BF9380912F0190917D
:100760003001A0913101B091320130912E0123E08E
:10077000230F2D3758F50196A11DB11D20932E0191
:1007800080932F0190933001A0933101B0933201F7
:100790008091330190913401A0913501B0913601DF
:1007A0000196A11DB11D8093330190933401A09354
:1007B0003501B0933601BF91AF919F918F913F91D9
:1007C0002F910F900FBE0F901F90189526E8230FC2
:1007D0000296A11DB11DD2CF789484B5826084BDEC
:1007E00084B5816084BD85B5826085BD85B5816035
:1007F00085BD80916E00816080936E0010928100B3
:10080000809181008260809381008091810081606D
:10081000809381008091800081608093800080912E
:10082000B10084608093B1008091B00081608093BA
:10083000B00080917A00846080937A0080917A0081
:10084000826080937A0080917A00816080937A0040
:1008500080917A00806880937A001092C100E091C4
:100860004701F091480182E08083E0914301F091DB
:1008700044011082E0914501F09146018FEC8083A4
:1008800010924F01E0914B01F0914C0186E0808382
:10089000E0914901F0914A01808180618083E0917B
:1008A0004901F0914A01808188608083E09149018B
:1008B000F0914A01808180688083E0914901F09144
:1008C0004A0180818F7D80830E9487009AE0892E73
:1008D000912C2BE6222E20E0322E30E0A32E30E0A9
:1008E000B32E42E060E070E08FEA94E40E946E0272
:1008F00080E291E00E941D020BE010E0D0E0C0E039
:1009000020E420937C0080917A00806480937A00B8
:1009100080917A0086FDFCCF8091780090917900DB
:10092000C80FD91F0E94F8012B013C018AE0C82E94
:10093000D12CE12CF12C0E94F8016419750986096B
:100940009709683E734081059105A8F381E0C81AB4
:10095000D108E108F108E8EE4E0EE3E05E1E611CEE
:10096000711CC114D104E104F10429F701501109EB
:1009700039F6CE01B4010E94FF0725E0269FC00191
:10098000279F900D1124BC01990F880B990B0E9491
:10099000D80620E030EC4FE754E40E9435066B01A6
:1009A0007C0120E030E44CE156E40E948D072B01ED
:1009B0003C01A701960160E070E080EA90E40E94AB
:1009C000C3059B01AC01C301B2010E9435066B0156
:1009D0007C0142E00E946E02C0910001D0910101B1
:1009E000CF3FD10560F420E030E04FEA54E4C70186
:1009F000B6010E94300687FF05C025970FC0CF3F84
:100A0000D105DCF720E030E04FEA54E4C701B6013D
:100A10000E94880718160CF040C02596D09301015B
:100A2000C093000183E291E00E941D02C09000018A
:100A3000D09001010D2C000CEE08FF084AE0C70120
:100A4000B601F7FE0DC06DE287E391E00E948B01D5
:100A500066277727CB016C197D098E099F094AE02B
:100A60000E942A028AE291E00E941D02C0910001C8
:100A7000D09101010E948700209791F480E00E94AC
:100A8000A300A114B10409F42CCF0E9455018823BE
:100A900009F427CF0E94000024CFD7FFAECFBDCFEF
:100AA000CF3FD10511F481E0EACFF1018491833089
:100AB00019F140F48130B1F08230C9F0C038D1056D
:100AC00094F7DCCF873011F1883041F18430B1F7F1
:100AD00080918000806280938000D0938B00C093CF
:100AE0008A00CFCF84B5806884BDC7BDCACF84B526
:100AF000806284BDC8BDC5CF80918000806880932E
:100B00008000D0938900C0938800BBCF8091B00053
:100B100080688093B000C093B300B3CF8091B000E1
:100B200080628093B000C093B400ABCFE7E3F1E004
:100B30001382128288EE93E0A0E0B0E08483958374
:100B4000A683B78386E091E09183808385EC90E073
:100B50009587848784EC90E09787868780EC90E087
:100B6000918B808B81EC90E0938B828B82EC90E078
:100B7000958B848B86EC90E0978B868B118E128EF2
:100B8000138E148E08955058BB27AA270E94DB05A8
:100B90000C944E070E94400738F00E94470720F04F
:100BA00039F49F3F19F426F40C943D070EF4E095B8
:100BB000E7FB0C943707E92F0E945F0758F3BA1739
:100BC000620773078407950720F079F4A6F50C9463
:100BD00081070EF4E0950B2EBA2FA02D0B01B90161
:100BE00090010C01CA01A0011124FF27591B99F0A3
:100BF000593F50F4503E68F11A16F040A22F232FAF
:100C0000342F4427585FF3CF469537952795A795FE
:100C1000F0405395C9F77EF41F16BA0B620B730BA5
:100C2000840BBAF09150A1F0FF0FBB1F661F771F16
:100C3000881FC2F70EC0BA0F621F731F841F48F4CB
:100C4000879577956795B795F7959E3F08F0B0CF54
:100C50009395880F08F09927EE0F9795879508953B
:100C60000E94130708F481E008950E9449060C943D
:100C70004E070E94470758F00E94400740F029F4B1
:100C80005F3F29F00C94370751110C9482070C94A4
:100C90003D070E945F0768F39923B1F3552391F351
:100CA000951B550BBB27AA2762177307840738F0DB
:100CB0009F5F5F4F220F331F441FAA1FA9F335D038
:100CC0000E2E3AF0E0E832D091505040E695001CEC
:100CD000CAF72BD0FE2F29D0660F771F881FBB1FA6
:100CE000261737074807AB07B0E809F0BB0B802D84
:100CF000BF01FF2793585F4F3AF09E3F510578F0B0
:100D00000C9437070C9482075F3FE4F3983ED4F3CA
:100D1000869577956795B795F7959F5FC9F7880F83
:100D2000911D9695879597F90895E1E0660F771FD5
:100D3000881FBB1F621773078407BA0720F0621B66
:100D4000730B840BBA0BEE1F88F7E09508950E9491
:100D5000670788F09F5798F0B92F9927B751B0F0DF
:100D6000E1F0660F771F881F991F1AF0BA95C9F72F
:100D700014C0B13091F00E948107B1E008950C9445
:100D80008107672F782F8827B85F39F0B93FCCF3F8
:100D9000869577956795B395D9F73EF490958095AC
:100DA000709561957F4F8F4F9F4F0895E89409C0CC
:100DB00097FB3EF490958095709561957F4F8F4F8E
:100DC0009F4F9923A9F0F92F96E9BB279395F695A4
:100DD000879577956795B795F111F8CFFAF4BB0F22
:100DE00011F460FF1BC06F5F7F4F8F4F9F4F16C086
:100DF000882311F096E911C0772321F09EE8872F10
:100E0000762F05C0662371F096E8862F70E060E0CB
:100E10002AF09A95660F771F881FDAF7880F969544
:100E2000879597F90895990F0008550FAA0BE0E8E8
:100E3000FEEF16161706E807F907C0F0121613069C
:100E4000E407F50798F0621B730B840B950B39F4DC
:100E50000A2661F0232B242B252B21F408950A2642
:100E600009F4A140A6958FEF811D811D089597F982
:100E70009F6780E870E060E008959FEF80EC089540
:100E800000240A9416161706180609060895002469
:100E90000A9412161306140605060895092E0394E3
:100EA000000C11F4882352F0BB0F40F4BF2B11F457
:100EB00060FF04C06F5F7F4F8F4F9F4F089557FDB6
:100EC0009058440F551F59F05F3F71F04795880FB8
:100ED00097FB991F61F09F3F79F08795089512164F
:100EE00013061406551FF2CF4695F1DF08C01616FB
:100EF00017061806991FF1CF8695710561050894AC
:100F00000895E894BB2766277727CB0197F90895C2
:100F10000E94130708F48FEF08950E94A0070C9415
:100F20004E070E94400738F00E94470720F09523A3
:100F300011F00C9437070C943D0711240C94820790
:100F40000E945F0770F3959FC1F3950F50E0551F06
:100F5000629FF001729FBB27F00DB11D639FAA270E
:100F6000F00DB11DAA1F649F6627B00DA11D661F5D
:100F7000829F2227B00DA11D621F739FB00DA11D7E
:100F8000621F839FA00D611D221F749F3327A00D38
:100F9000611D231F849F600D211D822F762F6A2FD4
:100FA00011249F5750409AF0F1F088234AF0EE0F39
:100FB000FF1FBB1F661F771F881F91505040A9F766
:100FC0009E3F510580F00C9437070C9482075F3FD9
:100FD000E4F3983ED4F3869577956795B795F795A2
:100FE000E7959F5FC1F7FE2B880F911D969587951A
:100FF00097F908950E941307880B990B089597FBA2
:10100000072E16F4009407D077FD09D00E9435080A
:1010100007FC05D03EF4909581959F4F08957095FB
:1010200061957F4F0895A1E21A2EAA1BBB1BFD01FB
:101030000DC0AA1FBB1FEE1FFF1FA217B307E407B7
:10104000F50720F0A21BB30BE40BF50B661F771F0F
:10105000881F991F1A9469F76095709580959095EF
:101060009B01AC01BD01CF010895AA1BBB1B51E13F
:1010700007C0AA1FBB1FA617B70710F0A61BB70B08
:10108000881F991F5A95A9F780959095BC01CD01AD
:101090000895EE0FFF1F0590F491E02D0994F89448
:0210A000FFCF80
:1010A2006400000000008B01EB001801D801490127
:1010B20027013B016E616E00696E66006F76660005
:0E10C200202020202020202020000D0A0000E9
:00000001FF
